:100000000C94F2050C941A060C941A060C941A0619
:100010000C941A060C941A060C941A060C941A06E0
:100020000C941A060C941A060C941A060C941A06D0
:100030000C941A060C941A060C941A060C941A06C0
:100040000C94FC210C941A060C946C220C944622FD
:100050000C941A060C941A060C941A060C941A06A0
:100060000C949E220C941A064E414E494E49545906
:10007000494E46CDCCCC3D0AD7233C17B7D1387773
:10008000CC2B329595E6241FB14F0A000020410089
:1000900000C84200401C4620BCBE4CCA1B0E5AAED3
:1000A000C59D74000000F0FF0FFCFF3FFEFF7FFEC8
:1000B000FF7FFFFFFFFFFFFF0700E00700E00700F3
:1000C000E0FFFFFFFFFFFFFEFF7FFEFF7FFCFF3F24
:1000D000F0FF0F000000700000700000700000785A
:1000E0000000F80000FCFFFFFEFFFFFEFFFFFFFF28
:1000F000FFFFFFFFFFFFFF00000000000000000007
:10010000000000000000F800E0FC00F8FE00FEFE29
:1001100080FFFFC0FF07F0FF07FCFF07FFEFFFFFB7
:10012000E3FFFFE1FE7FE0FE3FE0FC0FE0F00300B5
:10013000000000000000F8801FFE803FFE807FFF6F
:10014000807FFF80FFFF9CFFFF9CFF071CE0073EB6
:10015000E0FFFFFFFFFFFFFEFF7FFEF77FFCF73FA3
:10016000F0E31F00F00F00FE0F80FF0FE0FF0FFC19
:10017000BF0FFF870FFF810F3F800FFFFFFFFFFFC4
:10018000FFFFFFFFFFFFFFFFFFFFFFFFFF00800FED
:1001900000800F000000FFC70FFFC73FFFC77FFFB2
:1001A000C77FFFC7FFFFC7FF8701E0C701E0C701A7
:1001B000E0C7FFFFC7FFFFC7FF7F87FF7F87FF3FC6
:1001C00007FE1F000000F0FF0FFCFF3FFEFF7FFE59
:1001D000FF7FFFFFFFFFFFFF0706E00707E00707BE
:1001E000E03FFFFF3FFFFF3EFF7F3EFE7F3CFE3FC5
:1001F00038F81F0000000700000700000700C007D4
:1002000000F80700FF07E0FF07FEFFC7FFFFFFFF43
:100210003FFFFF07FFFF00FF0F00FF01001F00006F
:10022000000000000000F0E31FFCF73FFEFF7FFE30
:10023000FF7FFFFFFFFFFFFF071CE0071CE0071C1D
:10024000E0FFFFFFFFFFFFFEFF7FFEF77FFCF73FB2
:10025000F0E31F000000F81F1CFC7F3CFE7F7CFECB
:10026000FF7CFFFFFCFFFFFC07E0E007E0E007602A
:10027000E0FFFFFFFFFFFFFEFF7FFEFF7FFCFF3F72
:10028000F0FF0F00E0F8FCFE1E070707071EFEFC4C
:10029000F8F00000070F3F3F7C707070707C3F1FCC
:1002A0001F0700000000060707FFFFFFFF00000018
:1002B0000000000000000000007F7F7F7F00000042
:1002C00000000000383C3E3E0F070707CFFFFEFE50
:1002D0003800000040406070787C7E7F77737170DA
:1002E00070000000181C1E1E0FC7C7E7FFFEBE9C53
:1002F000000000000C1C3C3C78707070797F3F1F40
:100300000F0000000080C0E070381C1EFFFFFFFFE0
:100310000000000607070706060606067F7F7F7FA8
:1003200006060000000000F0FFFFFFE7E7E7E7C771
:1003300087000000003878717070707070393F3F2E
:100340001F0F000080E0F0F8FC7F7F6F67E1E1C0E5
:10035000800000000F1F3F3F7870707070783F3F43
:100360001F0F00000707070707C7E7F7FF7F3F1FBB
:100370000703010020387C7E3F0F070300000000C8
:100380000000000000001CBEFEFFE7C3C3E7FFFE45
:10039000BE1C0000000E3F3F7F71606060717F3FB8
:1003A0003F0F000078FCFEFE8F070707078FFEFE59
:1003B000FCF800000000014343737B7F7F1F0F07A1
:1003C000030000000000007C00FE1BFE1B7C000000
:1003D00000000000000E001E00000000001E000EC5
:1003E0000000002001FC0FFC0F20012001FC0FFC8D
:1003F0000F200138067C0C4408FF3FFF3F84088C27
:100400000F18071C18141E9C07E001781C1E140608
:100410001C0000BC1FFE104210C210FE1F3C0F80CB
:100420001980100000000010001E000E00000000E7
:1004300000000000000000F007FC1F0E3802200042
:100440000000000000000002200E38FC1FF0070032
:100450000000008000A002E003C001C001E003A092
:10046000028000800080008000E003E003800080C4
:10047000008000000000000040007800380000000C
:1004800000000080008000800080008000800080EC
:1004900000800000000000000000180018000000AC
:1004A0000000000018001E8007E00178001E000612
:1004B000000000F807FC0F0618C210C2100618FC56
:1004C0000FF807000008100C10FE1FFE1F001000A0
:1004D000100000041C061E02138211C21062103E9E
:1004E000181C18040806180210421042104210FE90
:1004F0001FBC0FC001E001300118010C11FE1FFEEE
:100500001F00117E087E184210421042104210C295
:100510001F820FF80FFC1F4610421042104210C0FD
:100520001F800F060006000200021FC21FF2003EDD
:10053000000E00BC0FFE1F4210421042104210FE7F
:100540001FBC0F3C007E104210421042104218FEA9
:100550000FFC07000000000000300C300C00000011
:10056000000000000000000020603C601C00000053
:100570000000008000C00160033006180C0C180455
:10058000100000400240024002400240024002408F
:1005900002400204100C18180C30066003C00180E1
:1005A000000000040006000200821BC21B62003E25
:1005B000001C00FC0FFE1F02108211C213E213FE8A
:1005C00013FC03F01FF81F0C01060106010C01F8D3
:1005D0001FF01F0210FE1FFE1F421042104210FEAD
:1005E0001FBC0FF807FC0F061802100210021006BD
:1005F000180C0C0210FE1FFE1F021002100618FC41
:100600000FF8070210FE1FFE1F42104210E21006F4
:100610001806180210FE1FFE1F42104200E20006DC
:10062000000600F807FC0F061802108210821086E0
:100630000F8C1FFE1FFE1F4000400040004000FEC8
:100640001FFE1F000002100210FE1FFE1F021002FC
:10065000100000000C001C001000100210FE1FFE15
:100660000F02000210FE1FFE1FE000B00118030E73
:100670001E061C0210FE1FFE1F02100010001000BC
:10068000180018FE1FFE1F1800F000F0001800FEF2
:100690001FFE1FFE1FFE1F38007000E000C001FE9D
:1006A0001FFE1FFC0FFE1F0210021002100210FEA0
:1006B0001FFC0F0210FE1FFE1F4210420042007E70
:1006C000003C00FC0FFE1F0210021C02380270FEEC
:1006D0005FFC0F0210FE1FFE1F42004200C200FE20
:1006E0001F3C1F1C0C3E1C621042104210C2108E98
:1006F0001F0C0F060006000210FE1FFE1F02100650
:10070000000600FE0FFE1F0010001000100010FE7B
:100710001FFE0FFE03FE07000C00180018000CFE61
:1007200007FE03FE07FE1F001CC007C007001CFEDB
:100730001FFE070E1C1E1E3003E001E00130031EE9
:100740001E0E1C1E003E006010C01FC01F60103E29
:10075000001E00061E061F8211C210621032101EFB
:10076000180E1800000000FE1FFE1F0210021000ED
:100770000000000018001E8007E00178001E00063F
:100780000000000000000002100210FE1FFE1F000B
:100790000000002000300018000C0018003000207D
:1007A0000000000080008000800080008000800049
:1007B0008000800000000000003800780040000049
:1007C000000000000E201F201120112011E00FC09A
:1007D0001F00100210FE1FFE0F201020106010C01E
:1007E0001F800FC00FE01F2010201020102010606D
:1007F000184008800FC01F601020102210FE0FFE4E
:100800001F0010C00FE01F2011201120112011E047
:1008100019C00900002010FC1FFE1F221022000634
:10082000000400C04FE0DF209020902090C0FFE047
:100830007F20000210FE1FFE1F400020002000E06D
:100840001FC01F000020102010EC1FEC1F00100024
:10085000100000006000C020802080ECFFEC7F00D2
:100860000000000210FE1FFE1F80018003C0066012
:100870001C2018000002100210FE1FFE1F001000B6
:10088000100000E01FE01F6000C00FC00F6000E01C
:100890001FC01F2000E01FC01F200020002000E01C
:1008A0001FC01FC00FE01F2010201020102010E0DC
:1008B0001FC00F2080E0FFC0FF209020102010E01C
:1008C0001FC00FC00FE01F201020102090C0FFE0BD
:1008D000FF20802010E01FC01F601020002000605B
:1008E000004000C008E019201120112013201260E0
:1008F0001E400C20002000FC0FFE1F2010201800BE
:10090000080000E00FE01F001000100010E00FE0F2
:100910001F0010E003E007000C00180018000CE0B6
:1009200007E003E00FE01F0018000F000F0018E0C1
:100930001FE00F20106018C00C80078007C00C60FB
:10094000182010E08FE09F00900090009000D0E011
:100950007FE03F6018601C20162013A011E010609B
:10096000182018000000008000FC1F7E3F022002BB
:100970002000000000000000007C3E7C3E000000E3
:100980000000000000022002207E3FFC1F800000CB
:1009900000000000005F00000007000700147F1443
:1009A0007F14242A7F2A12231308646236495522B1
:1009B000500005030000001C2241000041221C00E1
:1009C00014083E081408083E0808005030000008CB
:1009D00008080808006060000020100804023E516A
:1009E00049453E00427F4000426151494621414510
:1009F0004B311814127F1027454545393C4A494967
:100A00003001710905033649494936064949291E0D
:100A1000003636000000563600000814224100144B
:100A20001414141400412214080201510906324919
:100A300079413E7E1111117E7F494949363E41413F
:100A400041227F4141221C7F494949417F090909CF
:100A5000013E4149497A7F0808087F00417F4100F3
:100A60002040413F017F081422417F404040407FA9
:100A7000020C027F7F0408107F3E4141413E7F0906
:100A80000909063E4151215E7F0919294646494917
:100A9000493101017F01013F4040403F1F2040207C
:100AA0001F3F4038403F631408146307087008076D
:100AB0006151494543007F41410002040810200074
:100AC00041417F00040201020440404040400001D7
:100AD00002040020545454787F4844443838444435
:100AE0004420384444487F3854545418087E09013F
:100AF000020C5252523E7F0804047800447D4000AC
:100B00002040443D007F1028440000417F40007C8D
:100B1000041804787C0804047838444444387C146D
:100B2000141408081414187C7C080404084854544D
:100B30005420043F4440203C4040207C1C20402066
:100B40001C3C4030403C44281028440C5050503C41
:100B50004464544C44000836410000007F0000000B
:100B60004136080010080810084E4F2044415441F7
:100B7000003033253032580D0030330D00303A202C
:100B8000343920303220303100253032582530328F
:100B9000580D00415453502025750D0000000000F1
:100BA000250028002B0004040404040404040202A9
:100BB00002020202030303030303010204081020DC
:100BC00040800102040810200102040810200000E7
:100BD00000080002010000030407000000000000FC
:100BE0000000D92311241FBECFEFD8E0DEBFCDBF58
:100BF00026E0AAEDB2E001C01D92A23EB207E1F7E5
:100C000012E0A0E0B1E0EEE2FBE502C005900D923B
:100C1000AA3DB107D9F715E0C2EFD5E004C021978E
:100C2000FE010E94382DC13FD107C9F70E9453240D
:100C30000C94952D0C94000091E090939605809370
:100C4000B805109297051092B9050895CF92DF92DA
:100C5000EF92FF926B017C01E091CA05F091CB0508
:100C600082E08083C11481EED806E104F104A1F092
:100C700060E079E08DE390E0A70196010E94F72CF7
:100C800021503109410951095695479537952795C6
:100C9000211580E13807A8F0E091CA05F091CB0555
:100CA000108260E874E88EE190E0A70196010E944E
:100CB000F72C21503109410951095695479537952F
:100CC0002795E091C605F091C7053083E091C805EE
:100CD000F091C90520831092D205E091CE05F091E4
:100CE000CF0586E08083E091CC05F091CD05808131
:100CF00080618083E091CC05F091CD058081886092
:100D00008083E091CC05F091CD058081806880835F
:100D1000E091CC05F091CD0580818F7D8083FF909F
:100D2000EF90DF90CF90089590E0FC01E253F44FF4
:100D30002491FC01E654F44F3491FC01EA55F44F40
:100D4000E491EE23C9F0222339F0233001F1A8F415
:100D5000213019F1223029F1F0E0EE0FFF1FE456A7
:100D6000F44FA591B4918FB7F894EC91611126C01E
:100D700030953E233C938FBF08952730A9F028304B
:100D8000C9F0243049F7809180008F7D03C08091A5
:100D900080008F7780938000DFCF84B58F7784BD0C
:100DA000DBCF84B58F7DFBCF8091B0008F778093B0
:100DB000B000D2CF8091B0008F7DF9CF3E2BDACF3B
:100DC0003FB7F89480915E0590915F05A091600512
:100DD000B091610526B5A89B05C02F3F19F001967B
:100DE000A11DB11D3FBFBA2FA92F982F8827BC0185
:100DF000CD01620F711D811D911D42E0660F771FAD
:100E0000881F991F4A95D1F708958F929F92AF92AC
:100E1000BF92CF92DF92EF92FF924B015C010E9452
:100E2000E0066B017C010E94E0066C197D098E09C9
:100E30009F09683E734081059105A8F321E0821A5D
:100E40009108A108B10888EEC80E83E0D81EE11C05
:100E5000F11C81149104A104B10429F7FF90EF90D3
:100E6000DF90CF90BF90AF909F908F9008952FB755
:100E7000F89460915A0570915B0580915C059091A2
:100E80005D052FBF089508950895AF92BF92CF9248
:100E9000DF92EF92FF920F931F93CF93DF936C013A
:100EA0007B018B01040F151FEB015E01AE18BF081B
:100EB000C017D10759F06991D601ED91FC910190CD
:100EC000F081E02DC6010995892B79F7C501DF91E5
:100ED000CF911F910F91FF90EF90DF90CF90BF9037
:100EE000AF900895FC01538D448D252F30E0842F61
:100EF00090E0821B930B541710F0CF960895019742
:100F00000895FC01918D828D981761F0A28DAE0F2E
:100F1000BF2FB11D5D968C91928D9F5F9F73928FB5
:100F200090E008958FEF9FEF0895FC01918D828DE1
:100F3000981731F0828DE80FF11D858D90E00895AE
:100F40008FEF9FEF0895FC01918D228D892F90E006
:100F5000805C9F4F821B91098F73992708958AEBBC
:100F600095E00E94A30721E0892B09F420E0822F5D
:100F7000089580E090E0892B29F00E94AF0781114D
:100F80000C9400000895FC01A48DA80FB92FB11D89
:100F9000A35ABF4F2C91848D90E001968F739927AF
:100FA000848FA689B7892C93A089B1898C9183708D
:100FB00080648C93938D848D981306C00288F38986
:100FC000E02D80818F7D80830895EF92FF920F93B3
:100FD0001F93CF93DF93EC0181E0888F9B8D8C8DE5
:100FE00098131AC0E889F989808185FF15C09FB7D9
:100FF000F894EE89FF896083E889F989808183709C
:10100000806480839FBF81E090E0DF91CF911F914A
:101010000F91FF90EF900895F62E0B8D10E00F5F6B
:101020001F4F0F731127E02E8C8D8E110CC00FB641
:1010300007FCFACFE889F989808185FFF5CFCE01D9
:101040000E94C307F1CFEB8DEC0FFD2FF11DE35A8A
:10105000FF4FF0829FB7F8940B8FEA89FB8980815C
:101060008062CFCFCF93DF93EC01888D8823B9F0D6
:10107000AA89BB89E889F9898C9185FD03C08081A3
:1010800086FD0DC00FB607FCF7CF8C9185FFF2CF20
:10109000808185FFEDCFCE010E94C307E9CFDF91AC
:1010A000CF9108958AEB95E00E943208EAEBF5E0D3
:1010B000A289B3898C918F7E8C93A289B3898C91FC
:1010C000877F8C93A289B3898C918F778C93A28927
:1010D000B3898C918F7D8C93828D818F08950F932E
:1010E0001F93CF93DF93CDB7DEB7A0970FB6F894D9
:1010F000DEBF0FBECDBFDC01ED91FC910688F78904
:10110000E02D00E117E220E2AE014F5F5F4F6AEA97
:1011100071E00995A0960FB6F894DEBF0FBECDBF63
:10112000DF91CF911F910F910895EF92FF920F934E
:101130001F93CF93DF93CDB7DEB7A0970FB6F89488
:10114000DEBF0FBECDBF7C01DC01ED91FC910688B6
:10115000F789E02D00E117E220E2AE014F5F5F4F1B
:1011600060EB71E0099568EB7BE080E090E00E9425
:101170000507D701ED91FC910688F789E02D20E263
:10118000AE014F5F5F4F65EB71E0C7010995A09617
:101190000FB6F894DEBF0FBECDBFDF91CF911F9188
:1011A0000F91FF90EF900895FC0115A214A20C94EA
:1011B00052080F931F93DC01ED91FC910688F7898B
:1011C000E02D00E117E220E050E040E06BE972E042
:1011D00009951F910F9108956F927F928F929F9220
:1011E000AF92BF92CF92DF92EF92FF920F931F9335
:1011F000CF93DF938C01EB016A0179010E943707DD
:101200004B01612C712C21E0C21AD1088AEB95E0C8
:101210000E94A307892B09F443C08AEB95E00E9442
:101220008107682E209711F47394F0CF872D90E0FA
:101230008C159D055CF7AEE26A1217C0B2E0B715D7
:1012400050F59E01280F391FF901319740814E3228
:1012500011F522503109F90120812E32E1F4712C6F
:1012600080E1E82E87E2F82ED1CFFDE06F1631F055
:101270002AE0621619F0A0E26A120DC0772031F25E
:10128000FE01E80FF91F319720812D3009F4BECF00
:101290002A3009F4BBCF8C0F9D1FFC016082C4CFA4
:1012A000FEE36F1691F00E94370768197909E61678
:1012B000F70658F0D801ED91FC91E05CFF4F0190EA
:1012C000F081E02DC8010995A1CF872D90E02097EE
:1012D00019F0C80FD91F1882DF91CF911F910F917C
:1012E000FF90EF90DF90CF90BF90AF909F908F9046
:1012F0007F906F900895AF92BF92CF92DF92FF924E
:101300000F931F93CF93DF93CDB7DEB728970FB618
:10131000F894DEBF0FBECDBF6C0188E0E6E0F1E0DF
:10132000DE01119601900D928A95E1F78E010F5F13
:101330001F4F5E0189E0A80EB11CD8016D917D910F
:101340008D919D918D010E942606D601ED91FC9113
:1013500002A4F3A5E02DC6010995F82E811105C060
:101360000E9452080A151B0541F78F2D28960FB6CB
:10137000F894DEBF0FBECDBFDF91CF911F910F91CB
:10138000FF90DF90CF90BF90AF9008956150262FCF
:1013900030E043E0359527954A95E1F7820F931F9A
:1013A000677020E830E002C0359527956A95E2F72E
:1013B000FC019481922381E009F480E008950F9369
:1013C0001F93CF93DF93CDB7DEB7A0970FB6F894F6
:1013D000DEBF0FBECDBFDC01ED91FC910688F78921
:1013E000E02D08EE13E020E2AE014F5F5F4F6AEBA5
:1013F00071E00995A0960FB6F894DEBF0FBECDBF81
:10140000DF91CF911F910F9108950F931F93CF9369
:10141000DF93CDB7DEB7A0970FB6F894DEBF0FBE4F
:10142000CDBFDC01ED91FC910688F789E02D00E14C
:1014300017E220E2AE014F5F5F4F6FEB71E009955D
:10144000A0960FB6F894DEBF0FBECDBFDF91CF914F
:101450001F910F910895CF92DF92EF92FF920F9319
:101460001F93CF93DF93CDB7DEB7C054D1090FB62A
:10147000F894DEBF0FBECDBF8C017B016A01DC0199
:10148000ED91FC9104A4F5A5E02D20E4AE014F5FA1
:101490005F4F09950097C1F4C8010E94D908F8016F
:1014A00083818F5F838380E0C05CDF4F0FB6F89449
:1014B000DEBF0FBECDBFDF91CF911F910F91FF9087
:1014C000EF90DF90CF900895D801ED91FC9102ACA0
:1014D000F3ADE02DAC01D7016C91C8010995F6017F
:1014E0009183808381E0E0CFCF93DF93E62FBA0131
:1014F000EC01A881B981E450E03608F0F3C0F0E0D7
:10150000EC57F54F0C94382D000BFA0A350B350BC0
:10151000350B350BF10A720BE40A720B100BFA0A49
:10152000070B000B720B720B720B720B720B720BB0
:10153000720B720B720B720B720B720B720B1A0B1B
:10154000720B1A0B720B720B720B720B720B720B0B
:10155000720B720B720B720B000B350B000B000B36
:10156000720B1A0BE40A720B720B720B720B720B7A
:10157000720B720B720B720B5C0B5C0B5C0B5C0BDB
:10158000720B720B1E0B000B670B000BFA0A000BA1
:10159000000B000B000B000B000B1A0B1A0B720B4D
:1015A000720B720B000B720B720B720B720B720BC5
:1015B000720B1A0B720B000BFA0A4A0B250B720BFB
:1015C000720B2C0B2C0B1A0BD496ED91FC910995F8
:1015D000BC017695679576956795CB01DF91CF91A4
:1015E0000895D696ED91FC910995D3E08D9FB001B9
:1015F0001124F3CFD896ED91FC91DF91CF9109940E
:10160000D296ED91FC910995682F70E0E6CFD496C3
:10161000ED91FC91099564E670E00E94CF2CDDCF3E
:10162000D696ED91FC9109958695282F2054330B81
:10163000B901D3CFD496ED91FC91DFCFD496ED9143
:10164000FC91099568EE73E0E8CFD496ED91FC919A
:10165000099564E170E0E1CFD696ED91FC91099592
:10166000C82FCD57DD0BBE01B8CFD696ED91FC91BA
:1016700009958058990B44E6489FB001499F700D29
:10168000112477FF02C061587F4F660F672F661FD6
:10169000770BA3CFD496ED91FC910995B0E0A0E033
:1016A000BC01CD0179568109910920E830E040E084
:1016B00050E00E94192DBCCFD496ED91FC91099574
:1016C0006AE070E00E94CF2C6852710986CFD496F0
:1016D000ED91FC9109959C01A8ECB0E00E94C02C12
:1016E000BC017BCFD696ED91FC918DCF0F931F93CC
:1016F000CF93DF93CDB7DEB7A0970FB6F894DEBFD8
:101700000FBECDBF8C01DC01ED91FC9100A8F1A9C9
:10171000E02D65EC71E00995D801ED91FC9106A4EE
:10172000F7A5E02D28EE33E040E250E0BE016F5F08
:101730007F4FC8010995A0960FB6F894DEBF0FBE83
:10174000CDBFDF91CF911F910F910895AF92BF92BE
:10175000CF92DF92FF920F931F93CF93DF935C01A1
:10176000EB0189016B01C40ED11CF12CCC15DD05F8
:1017700079F06991D501ED91FC910684F785E02D12
:10178000A801C50109958111F3940E5F1F4FEECF9B
:101790008F2DDF91CF911F910F91FF90DF90CF9010
:1017A000BF90AF900895CF92DF92FF920F931F9357
:1017B000CF93DF93EC016A01F22EE881F98100A852
:1017C000F1A9E02D0995E881F981E05CFF4F0190D6
:1017D000F081E02DCE0109954F2D50E0E881F9818F
:1017E00006A4F7A5E02D9801B601CE010995DF9179
:1017F000CF911F910F91FF90DF90CF900895FC0142
:10180000208191818FEB820F863030F42750911127
:101810000FC0822F8F7008958FE9820F863010F4E9
:101820002752F5CF80ED820F8A3088F380E008954B
:101830008FEB890F863048F49750F0E12F9F90018D
:1018400011249F70892F822B08958FE9890F86308C
:1018500010F49752F2CF80ED890F8A3070F3E6CF03
:10186000CB010E94FF0B8852990B0895CB010C9479
:10187000FF0BCB010E94FF0B24E6829FC0011124C5
:101880006FEF70E00E94CF2C862F0895FC0191919C
:1018900080E030E020E09923F9F08430E8F44FEB69
:1018A000490F463058F4975044E0220F331F4A95B1
:1018B000E1F79F70292B8F5F9191EDCF4FE9490F91
:1018C000463010F49752F0CF903211F48230A1F3E9
:1018D00040ED490F4A3040F3C9010895CB010C9403
:1018E000460C20913E03211109C021E020933E03C4
:1018F00030915706209158063CBD2DBD60E0FC019B
:1019000084810C94940661E0FC0184810E94940619
:1019100080913E03811110923E0308958EBD000018
:101920000DB407FEFDCF8EB508958FEF0C948E0C8D
:101930000F931F93CF93DF93EC010E9437078B0126
:101940000E94950C8F3F69F00E943707601B710B56
:101950006C177D07A8F380E0DF91CF911F910F9165
:10196000089581E0F9CFCF92DF92EF92FF920F932B
:101970001F93CF93DF93EC01162F69017A018E81BB
:10198000882389F08F8198859C012F5F3F4F38878E
:101990002F838230924018F40E94950CF3CFCE0131
:1019A0000E94830C1E82CE010E94710C8CE291E099
:1019B0000E94980C812F80640E948E0C08E110E038
:1019C000D701C601002E04C0B695A79597958795B7
:1019D0000A94D2F70E948E0C08501109083F8FEF2D
:1019E000180771F78FEF0E948E0C10E00E94950C83
:1019F0008A8787FF04C01F3F11F01F5FF7CFDF9179
:101A0000CF911F910F91FF90EF90DF90CF900895AD
:101A1000CF92DF92EF92FF920F93CF93DF93EC017F
:101A2000690182E1411551056105710599F08B85C8
:101A3000833039F089E0440F551F661F771F8A9560
:101A4000D1F79A01AB0168E1CE010E94B30C882363
:101A500019F084E08D832DC08EEF0E948E0C7601EC
:101A60008EEFD81AF70181917F010E948E0CEC1441
:101A7000FD04C1F78FEF0E948E0C8FEF0E948E0C39
:101A80000E94950C8A878F71853071F4011116C000
:101A9000CE010E94830C81E0DF91CF910F91FF90E6
:101AA000EF90DF90CF90089581E18D83CE010E9469
:101AB000830CCE010E94830C80E0EECF88E592E09B
:101AC0000E94980C811102C085E1C4CF20E030E073
:101AD000A9016DE0CE010E94B30C882311F084E1CE
:101AE000B9CF0E94950C8111FACFD2CF0F934091BC
:101AF00040035091410360914203709143034115AB
:101B000051056105710589F0082F24E433E090E068
:101B100080E00E94080D882349F010924003109243
:101B20004103109242031092430381E00F91089504
:101B30000F93CF93C82F80913F03811105C0C1E05F
:101B40008C2FCF910F910895409100015091010188
:101B500060910201709103010C2F24E433E090E0C6
:101B600080E00E94080D811102C0C0E0E9CFCC23C3
:101B700031F381E00E94760D8823B9F310923F0380
:101B8000DFCFAF92BF92CF92DF92EF92FF921F937F
:101B9000CF93DF936B017C01142F80910001909112
:101BA0000101A0910201B09103018C159D05AE05C4
:101BB000BF0509F4ADC081E00E94980D8823E1F1D2
:101BC000809106008823A1F080910000909101008F
:101BD000A0910200B0910300C816D906EA06FB06E0
:101BE00039F48091070090910800892B09F44FC0C7
:101BF000C0920000D0920100E0920200F092030037
:101C000080910B00A7019601833039F099E0220FF3
:101C1000331F441F551F9A95D1F761E190E080E092
:101C20000E94B30C882391F083E08093050090E03C
:101C300080E00E94830C80E0DF91CF911F91FF90A4
:101C4000EF90DF90CF90BF90AF9008950E9437073C
:101C5000EB010E94950C80930A008F3F79F40E945B
:101C600037076C1B7D0B6D32714098F38FE08093CA
:101C7000050090E080E00E94830CD9CF8E3FC1F533
:101C8000109208001092070081E080930600C4E4DF
:101C9000D3E084E4A82E85E0B82E0E94950C8993A9
:101CA000AC16BD06D1F780910700909108009E5FA9
:101CB000909308008093070020910900222319F0D7
:101CC00081159240E8F0809106008823C9F0809148
:101CD0000700909108009C012F5F3F4F3093080050
:101CE000209307008230924028F40E94950CEFCF99
:101CF0008DE0BDCF90E080E00E94830C1092060042
:101D0000C0920001D0920101E0920201F092030121
:101D100040913F03412B40933F0381E08DCF4F9291
:101D20005F926F927F928F929F92AF92BF92CF926B
:101D3000DF92EF92FF920F931F93CF93DF93EC010B
:101D4000423051056105710590F480E0DF91CF913B
:101D50001F910F91FF90EF90DF90CF90BF90AF90C9
:101D60009F908F907F906F905F904F90089589859E
:101D70009A85AB85BC850196A11DB11D8417950779
:101D8000A607B70710F3CB88DC88ED88FE888F891B
:101D9000803109F042C0BB27A72F962F852F48011D
:101DA00059012A013B01C80ED91EEA1EFB1E809173
:101DB000000190910101A0910201B0910301C816A8
:101DC000D906EA06FB0699F58F898031C1F5B30182
:101DD000A201552766277727440F551F4C5B5C4FA0
:101DE000FA019182808280913F03816080933F035A
:101DF0008A89823080F08D819E81AF81B8858C0D7B
:101E00009D1DAE1DBF1D8093400390934103A09381
:101E10004203B093430381E099CFDB01CA01E7E0BD
:101E2000B695A79597958795EA95D1F7B8CF40E0F5
:101E3000C701B6010E94C10D8111C6CF86CFB30183
:101E4000A2014F77552766277727440F551F440F68
:101E5000551F4C5B5C4FFA0180829182A282B38253
:101E6000C2CF8F929F92AF92BF92CF92DF92EF92AA
:101E7000FF920F931F93CF93DF93FC01818592858F
:101E8000A385B4850196A11DB11D84179507A607EA
:101E9000B70770F480E0DF91CF911F910F91FF9011
:101EA000EF90DF90CF90BF90AF909F908F9008956C
:101EB00083889488A588B6888789803189F5BB276F
:101EC000A72F962F852FE9016A017B018F01BC01A5
:101ED000CD01680D791D8A1D9B1D80900001909099
:101EE0000101A0900201B090030186169706A80692
:101EF000B90601F5F8018789803111F5DD24EE245A
:101F0000FF24F601EE0FFF1FEC5BFC4F80819181F7
:101F1000B0E0A0E088839983AA83BB8381E0BBCF34
:101F2000DB01CA01C7E0B695A79597958795CA9535
:101F3000D1F7C9CF40E00E94C10D8111DBCFAACFFC
:101F4000E894C7F8DD24EE24FF24F601EE0FFF1F0E
:101F5000EE0FFF1FEC5BFC4F80819181A281B3816A
:101F6000BF70D8CF8F929F92AF92BF92CF92DF92E5
:101F7000EF92FF920F931F93CF93DF93EC018D812C
:101F800081110EC080E0DF91CF911F910F91FF90E2
:101F9000EF90DF90CF90BF90AF909F908F9008957B
:101FA0000B891C892D893E890417150726073707D9
:101FB00048F34A015B01823031F48A869B86AC8605
:101FC000BD8681E0E0CF81149104A104B10449F4FD
:101FD0001E821F82188619861A861B861C861D86FD
:101FE000F0CF0A851B852C853D85EB8DFC8D858585
:101FF00090E00996B901A8014150510961097109A0
:10200000082E04C076956795579547950A94D2F7A0
:1020100075016401E1E0CE1AD108E108F10804C0BD
:10202000F694E794D794C7948A95D2F7C416D50648
:10203000E606F70620F0012B022B032B11F58F8902
:10204000988DA98DBA8D8E839F83A887B9878E01BD
:102050000A5F1F4FC114D104E104F10409F4ADCFAC
:102060004E815F816885798598018B8D9C8D0E945A
:10207000310F91E0C91AD108E108F1088111EACFC6
:1020800081CFC41AD50AE60AF70AE1CF3F924F92F0
:102090005F926F927F928F929F92AF92BF92CF92F8
:1020A000DF92EF92FF920F931F93CF93DF93CDB701
:1020B000DEB72C970FB6F894DEBF0FBECDBF5C0124
:1020C000DC015B968D909C905C9716964D905D9090
:1020D0006D907C901997411451046104710409F4C6
:1020E00068C0BFEF4B1A5B0A6B0A7B0A312CF40104
:1020F00081859285A385B4859C01AD012F5F3F4FFB
:102100004F4F5F4F29873A874B875C877301620186
:102110001D821E821F821886F40181859285A38507
:10212000B4852D813E814F815885281739074A078C
:102130005B0708F056C089859A85AB85BC858C15F0
:102140009D05AE05BF0550F482E0C82ED12CE12CD0
:10215000F12C92E0492E512C612C712C9E012F5FA5
:102160003F4FB701A601C4010E94310F8823C9F176
:1021700089819A81AB81BC81892B8A2B8B2B09F1B8
:10218000260137019FEF491A590A690A790A2D81F8
:102190003E814F8158852F5F3F4F4F4F5F4F2D83BB
:1021A0003E834F8358873FEFC31AD30AE30AF30AEB
:1021B000B3CFF40140805180628073803324339424
:1021C00096CFC414D504E604F70409F70FEF1FEF08
:1021D0002FEF3FE0B701A601C4010E948F0E8111CD
:1021E00019C080E02C960FB6F894DEBF0FBECDBFAD
:1021F000DF91CF911F910F91FF90EF90DF90CF90E3
:10220000BF90AF909F908F907F906F905F904F9016
:102210003F900895D50116964D915D916D917C91F9
:102220001997411551056105710539F0970186012E
:10223000C4010E948F0E8823A1F2D5011696CD927B
:10224000DD92ED92FC921997332051F0D701C6012F
:102250000196A11DB11DF40180839183A283B383F4
:10226000F5018789908DA18DB28D892B8A2B8B2BBF
:1022700039F48481C78AD08EE18EF28E806884839F
:10228000F50184818062848381E0ACCF1F93CF937A
:10229000DF93EC01162F8C8187FF2AC06E857F8526
:1022A0008889998941E00E94C10D882361F1EA89FA
:1022B00080E2E89FF0011124EC5BFC4F309719F1AC
:1022C0008D81823040F48B899C89AD89BE89848F51
:1022D000958FA68FB78F8F89988D938F828F8F89D7
:1022E000988DA98DBA8DB58BA48B8C818F778C83BB
:1022F000111103C08C818F7E8C83812FDF91CF9150
:102300001F910C94980D80E0DF91CF911F9108955B
:102310001F93CF93DF93EC018D81813031F090E0FA
:1023200080E0DF91CF911F9108958C8181FFF7CFDD
:1023300082FD1BC090E080E00E94710C0E94950C11
:10234000182F90E080E00E94830C1F3F41F78C81A2
:1023500085FF1EC08D81882321F060E0CE010E94A0
:1023600046118C818F7D8C83DACF4B895C896D8996
:102370007E898A859B85AC85BD8584179507A607D0
:10238000B707C1F2CE010E94B20F8111D3CFC7CFE0
:102390004091400350914103609142037091430387
:1023A000452B462B472B21F080E00E94760DB7CFBE
:1023B00080618C832A853B85317080E092E0821BAE
:1023C000930BAFCF9F92AF92BF92CF92DF92EF92DB
:1023D000FF920F931F93CF93DF9300D000D01F92F3
:1023E000CDB7DEB78C016D83DC0115968C91159706
:1023F000813009F0B9C014968C9181FFB5C082FD7F
:102400009FC0D8015B96ED91FC915C971A96AD90B8
:10241000BD90CD90DC901D9794809A94B601A50153
:1024200089E076956795579547958A95D1F79422D7
:10243000B1E0BB22992009F49FC0D8015B96ED91D1
:10244000FC915C971696CD90DD90ED90FC901997DD
:10245000B2E0CB1AD108E108F108858504C0CC0CA4
:10246000DD1CEE1CFF1C8A95D2F7468557856089D6
:102470007189C40ED51EE61EF71EC90CD11CE11CC5
:10248000F11CA114B10409F00AC1F8014285538579
:102490006485758583899489A589B6894817590704
:1024A0006A077B0708F4FBC081E00E94980D88232F
:1024B00009F45AC0C0920001D0920101E0920201D9
:1024C000F092030180913F03816080933F03F50107
:1024D000EC5BFC4F8D818083F80182859385A48518
:1024E000B5850196A11DB11D82879387A487B58705
:1024F0004389548965897689481759076A077B0794
:1025000038F42481838B948BA58BB68B206824832D
:10251000D80114968C9183FD9FC081E090E00F90CC
:102520000F900F900F900F90DF91CF911F910F910F
:10253000FF90EF90DF90CF90BF90AF909F90089565
:10254000F801438954896589768982859385A485B4
:10255000B585481759076A077B0709F452CFC801A8
:102560000E94B20F81114DCF81E090E0D801139607
:102570009C938E93129749C0D80116964D915D9108
:102580006D917C911997A114B10409F071C04115A6
:1025900051056105710589F557968D919D910D90B5
:1025A000BC91A02D0097A105B10509F04FC0C8014D
:1025B0000E9446108823C1F2D8015B96ED91FC91F0
:1025C0005C971696CD90DD90ED90FC901997B2E057
:1025D000CB1AD108E108F108858504C0CC0CDD1CBC
:1025E000EE1CFF1C8A95D2F7468557856089718954
:1025F000C40ED51EE61EF71E48CF9E012F5F3F4F2B
:10260000CF010E94310F811103C090E080E087CF9D
:1026100089819A81AB81BC81F801238D348DF901C8
:10262000278948EF5FEF60E070E0203121F048EF4C
:102630005FEF6FEF7FE084179507A607B70730F0CD
:10264000C8010E9446108111F8CE8ECFF801868312
:102650009783A087B187F1CEF8018581882309F49B
:1026600083CF61E0C8010E944611811156CF7CCF13
:102670006A017B01B2E0CB1AD108E108F108858537
:1026800004C0CC0CDD1CEE1CFF1C8A95D2F74685DD
:10269000578560897189C40ED51EE61EF71E41E07C
:1026A000C701B6010E94C10D811111CF5DCF2091EC
:1026B0001B03260F3327331F21323105ECF4209101
:1026C0009005FC0190E080E0243069F082E00895FC
:1026D000A0911B032191AC0145505D4FA40FB52F74
:1026E000B11D2C930196861798F380911B03680FF8
:1026F00060931B0380E0089581E008951092900597
:1027000081E080938F0510926A0561E082E10E946A
:10271000940661E083E10E949406E9EBF0E0808199
:102720008E7F808380818D7F808388E48093B80052
:1027300085E48093BC000895CF93DF9391E090935C
:10274000FA028823B9F0C091B800D091BA00809104
:10275000BC008A7B8093BC0060E082E10E9494060A
:1027600060E083E10E9494060E947E13D093BA0039
:10277000C093B800DF91CF910895CF92DF92EF928E
:10278000FF920F931F93CF93DF93D091B90581E010
:10279000D13208F09CC0C091B8050E94E0066B01E0
:1027A0007C018091900581116CC082E0809390053E
:1027B00081E080938F058FEF80938E0510928D05B9
:1027C000D0938C05A8E9B5E0ECE6F5E080E0D813FD
:1027D0008DC010926B0580916B05CC0FC82BC093F8
:1027E0006B0580916A05813009F084C010926A05FA
:1027F0000E94E0066B017C0180916B058093BB0019
:102800008091920590919305A0919405B0919505C2
:10281000892B8A2B8B2BA1F00E94E0060091920558
:102820001091930520919405309195056C197D09BF
:102830008E099F09061717072807390708F442C0B1
:102840008091BC0083FDD8CF85EC8093BC000E94B2
:10285000E0066B017C0180919005823009F44CC048
:1028600080918E058F3F09F469C080918E0580327A
:1028700009F466C080918E05803309F463C084E05A
:1028800026C08091920590919305A0919405B091F6
:102890009505892B8A2B8B2B09F483CF0E94E006A8
:1028A0000091920510919305209194053091950522
:1028B0006C197D098E099F09061717072807390724
:1028C00008F06FCF809191050E949C1385E01092D3
:1028D00097051092B90510929605DF91CF911F913F
:1028E0000F91FF90EF90DF90CF9008959D9191937D
:1028F0008F5F6DCF85EEA9CF809192059091930562
:10290000A0919405B0919505892B8A2B8B2B09F406
:10291000A2CF0E94E00600919205109193052091AC
:102920009405309195056C197D098E099F0906174C
:1029300017072807390708F08ECFC4CF80E0C7CF2C
:1029400082E0C5CF83E0C3CF0895E091490580912F
:102950004805E81730F4F0E0E652FD4F808190E042
:1029600008958FEF9FEF0895909149058091480554
:102970002FEF3FEF981748F4E92FF0E0E652FD4FB4
:10298000208130E09F5F90934905C90108958091AF
:10299000480590914905891B990B0895CF92DF92C4
:1029A000EF92FF920F931F93CF93DF937C01CB01A4
:1029B0008A0120919605222389F0EB016B01C40E58
:1029C000D51ECC15DD0569F06991D701ED91FC911B
:1029D0000190F081E02DC7010995F3CF642F0E948B
:1029E0005713C801DF91CF911F910F91FF90EF9086
:1029F000DF90CF900895CF93DF931F92CDB7DEB7CE
:102A00006983209196052223F9F02091B90520329F
:102A100058F021E030E0FC013383228390E080E035
:102A20000F90DF91CF91089580919705E82FF0E006
:102A3000E856FA4F998190838F5F80939705809332
:102A4000B90581E090E0ECCF61E0CE0101960E94F3
:102A50005713F7CF682F82EA96E00C94FB14CF93BC
:102A6000C82F8CE30E941C0690E080E00E942A158B
:102A70006C2F82EA96E00E94FB14CF910C94BD1358
:102A8000CF93DF93EC016E5F6887498780EB840FFB
:102A90000E942F1588858F700E942F15888582953A
:102AA0008F708061DF91CF910C942F15FF920F935F
:102AB0001F93CF93DF93D82F80E00E942F1580E1E2
:102AC0000E942F1580E40E942F15D695D695D69595
:102AD000F090B80082E18093B800C0E080EB8C0FEA
:102AE0000E942F1582E00E942F1580E10E942F1571
:102AF00018E08CE30E941C0680E490E00E942A15F6
:102B000000E190E080E00E942A150150D1F70E9478
:102B1000BD13115071F7CF5FCD1700F3F092B800DD
:102B200040E060E086ED96E0DF91CF911F910F913C
:102B3000FF900C944015BF92CF92DF92EF92FF92DC
:102B40000F931F93CF93DF93EC01F090B80082E1D5
:102B50008093B8000FED060F8A81811156C08CE377
:102B60000E941C0680E490E00E942A150E35D8F5DC
:102B700085E0089F80011124D12CC12C0D56164FE1
:102B8000F801EC0DFD1DE4906E2D82EA96E00E94A6
:102B9000FB148B8181FF05C06E2D82EA96E00E94B6
:102BA000FB149FEFC91AD90AE5E0CE16D10441F70C
:102BB00090E080E00E942A150E94BD1388859B81C9
:102BC00091FF1CC09BE0890F87FD1AC08887F09297
:102BD000B800DF91CF911F910F91FF90EF90DF90A0
:102BE000CF90BF9008958B811BE081FF16E090E0AD
:102BF00080E00E942A151150D1F7DECF96E0E3CF96
:102C0000188689858F5F8987E2CF898580550E3543
:102C100008F06FC00E942F1588858F700E942F15B5
:102C2000888582958F7080610E942F158CE30E94A9
:102C30001C0680E490E00E942A15F0E10F9F8001BD
:102C40001124C8018D539C4F6C0198E0E92EF601C8
:102C5000B4906B2D82EA96E00E94FB148B8181FF79
:102C600005C06B2D82EA96E00E94FB14EA94F2E024
:102C7000CF0ED11CE110EBCF0E94BD1389858F547C
:102C80000E942F1588858F700E942F158885829548
:102C90008F7080610E942F158CE30E941C0680E4D7
:102CA00090E00E942A150C531C4F88E0E82EF80192
:102CB000D4906D2D82EA96E00E94FB148B8181FFF7
:102CC00005C06D2D82EA96E00E94FB14EA940E5F27
:102CD0001F4FE110ECCF0E94BD1388859B8191FDB1
:102CE00047C099E0890F87FF71CF188689858E5F6D
:102CF0008ACF0E942F1588858F700E942F15888596
:102D000082958F7080610E942F158CE30E941C06B3
:102D100080E490E00E942A158B8110E181FF18E089
:102D200090E080E00E942A151150D1F70E94BD1357
:102D300089858F540E942F1588858F700E942F15CA
:102D4000888582958F7080610E942F158CE30E9488
:102D50001C0680E490E00E942A158B8110E181FF1F
:102D600018E090E080E00E942A151150D1F7B3CF0F
:102D700091E1B8CF3F924F925F926F927F928F9284
:102D80009F92AF92BF92CF92DF92EF92FF920F93FA
:102D90001F93CF93DF938C015B01C42F622E409071
:102DA000B80082E18093B80080E00E942F1580E196
:102DB0000E942F1580E40E942F15669466946694F5
:102DC000D0E093E0D595C7959A95E1F73C2E4E015A
:102DD00023E0880C991C2A95E1F7712C7614B0F544
:102DE000F80181858055870D0E942F15F801808597
:102DF0008F700E942F15F801808582958F708061F9
:102E00000E942F15750188E0582E8CE30E941C0645
:102E100080E490E00E942A1567018C2D8E1983159D
:102E200050F4F601649182EA96E00E94FB14FFEFF1
:102E3000CF1ADF0AF2CFEC0EFD1E0E94BD135A948A
:102E40005110E3CFA80CB91C7394C8CF4092B800BE
:102E5000F8018085C80FC087DF91CF911F910F9136
:102E6000FF90EF90DF90CF90BF90AF909F908F90AA
:102E70007F906F905F904F903F900895AF92BF9278
:102E8000CF92DF92EF92FF920F931F93CF93DF9336
:102E9000EC01062FF090B80082E18093B8009A818F
:102EA000911133C08CE30E941C0680E490E00E94E4
:102EB0002A150A3010F5015F85E0089F8001112472
:102EC000D12CC12C0D56164FF801EC0DFD1D64914F
:102ED00082EA96E00E94FB149FEFC91AD90AE5E046
:102EE000CE16D10489F790E080E00E942A150E9456
:102EF000BD1388858A5F888716C016E090E080E061
:102F00000E942A151150D1F7F2CF9130C9F4E8810F
:102F1000F9810680F781E02D60E3600F0A3008F048
:102F200060E2CE010995F092B800DF91CF911F9138
:102F30000F91FF90EF90DF90CF90BF90AF900895EA
:102F400089858055923009F0B3C06A3008F071C0AD
:102F50000E942F1588858F700E942F158885829575
:102F60008F7080610E942F158CE30E941C0680E404
:102F700090E00E942A15F0E20F9F80011124D12CCD
:102F8000C12CC8018D579D4F5C01F501EC0DFD1D55
:102F9000E4906E2D82EA96E00E94FB148B8181FF03
:102FA00005C06E2D82EA96E00E94FB149FEFC91ABD
:102FB000D90AE0E1CE16D10441F70E94BD138985FC
:102FC0008F540E942F1588858F700E942F15888539
:102FD00082958F7080610E942F158CE30E941C06E1
:102FE00080E490E00E942A15D12CC12C0D561D4F73
:102FF000F801EC0DFD1DE4906E2D82EA96E00E9432
:10300000FB148B8181FF05C06E2D82EA96E00E9441
:10301000FB14FFEFCF1ADF0A80E1C816D10441F795
:103020000E94BD1388859B8191FD39C190E1890F74
:1030300062CF0E942F1588858F700E942F1588857A
:1030400082958F7080610E942F158CE30E941C0670
:1030500080E490E00E942A158B8110E281FF10E14C
:1030600090E080E00E942A151150D1F70E94BD1314
:1030700089858F540E942F1588858F700E942F1587
:10308000888582958F7080610E942F158CE30E9445
:103090001C0680E490E00E942A158B8110E281FFDB
:1030A00010E190E080E00E942A151150D1F7B8CFCE
:1030B0006A3008F094C00E942F1588858F700E9496
:1030C0002F15888582958F7080610E942F158CE363
:1030D0000E941C0680E490E00E942A1590E3099F5C
:1030E00080011124F801ED55FF4F6F0120E1E22E20
:1030F000F601B4906B2D82EA96E00E94FB148B815E
:1031000081FF05C06B2D82EA96E00E94FB14EA94D1
:10311000F3E0CF0ED11CE110EBCF0E94BD138985E7
:103120008F540E942F1588858F700E942F158885D7
:1031300082958F7080610E942F158CE30E941C067F
:1031400080E490E00E942A15C8018C559F4F6C01C5
:1031500090E1E92EF601B4906B2D82EA96E00E9490
:10316000FB148B8181FF05C06B2D82EA96E00E94E3
:10317000FB14EA94F3E0CF0ED11CE110EBCF0E94D8
:10318000BD1389858E540E942F1588858F700E94EB
:103190002F15888582958F7080610E942F158CE392
:1031A0000E941C0680E490E00E942A150B551F4FD8
:1031B00080E1E82EF801D4906D2D82EA96E00E941D
:1031C000FB148B8181FF05C06D2D82EA96E00E9481
:1031D000FB14EA940D5F1F4FE110ECCF21CF0E944A
:1031E0002F1588858F700E942F15888582958F7086
:1031F00080610E942F158CE30E941C0680E490E001
:103200000E942A158B8110E281FF10E190E080E09E
:103210000E942A151150D1F70E94BD1389858F5441
:103220000E942F1588858F700E942F1588858295A2
:103230008F7080610E942F158CE30E941C0680E431
:1032400090E00E942A158B8110E281FF10E190E04E
:1032500080E00E942A151150D1F70E94BD13898584
:103260008E540E942F1588858F700E942F15888597
:1032700082958F7080610E942F158CE30E941C063E
:1032800080E490E00E942A158B8110E281FF10E11A
:1032900090E080E00E942A151150D1F7C1CE9EE146
:1032A000C6CECF92DF92EF92FF920F931F93CF93F0
:1032B000DF938C01C62E85E0D82EC0E1D7E29AE0DC
:1032C000E92EF12CC801BE010E94CF2C262F6C9F45
:1032D000C0016D9F900D1124081B190BCE01B70181
:1032E0000E94CF2CEB0121111BC0CC20C9F02097EC
:1032F000B9F0CD144CF06091D9066095617061957C
:1033000086ED96E00E943E17DA94D110DBCFDF9174
:10331000CF911F910F91FF90EF90DF90CF90089584
:10332000622F86ED96E00E943E17C12CEDCF0895E6
:10333000FC0184A195A10895089590E080E008958E
:10334000CF92DF92EF92FF920F931F93CF93DF9371
:10335000CDB7DEB729970FB6F894DEBF0FBECDBF4D
:103360008C0169876A011F926F93D80112968C9124
:103370001F928F9389EC91E09F938F93FE0131967A
:103380007F01FF93EF930E94722DD801ED91FC9184
:1033900000A8F1A9E02DB701C8010995D801ED9168
:1033A000FC9106A0F7A1E02DA601BE01675F7F4F4B
:1033B000C80109950FB6F894DEBF0FBECDBF2996A0
:1033C0000FB6F894DEBF0FBECDBFDF91CF911F9136
:1033D0000F91FF90EF90DF90CF900895FB01019047
:1033E0000020E9F73197AF01461B570BDC01ED9147
:1033F000FC910280F381E02D09948F929F92AF920D
:10340000BF92EF92FF920F931F93CF93DF93CDB7AD
:10341000DEB7A1970FB6F894DEBF0FBECDBF7C011B
:10342000FA01CB0119A2223008F42AE08E010F5DC7
:103430001F4F822E912CB12CA12CBF01A50194010C
:103440000E94F72CF901CA016A300CF5605DD801C1
:103450006E938D01232B242B252B79F790E080E0B0
:10346000109721F0BD01C7010E94EE19A1960FB679
:10347000F894DEBF0FBECDBFDF91CF911F910F91AA
:10348000FF90EF90BF90AF909F908F900895695CF0
:10349000DECF0F931F93CF93DF93EC010E94EE19C1
:1034A0008C0163ED71E0CE010E94EE19800F911F37
:1034B000DF91CF911F910F910895CF93DF93EC018E
:1034C0001092D80643E060E086ED96E00E94401539
:1034D000888166ED71E081FD02C068EE71E08AEDE1
:1034E00096E0DF91CF910C94491A0C94EE190F934A
:1034F0001F93CF93DF93CDB7DEB728970FB6F8941D
:10350000DEBF0FBECDBF1092D80640E068E386ED67
:1035100096E00E9440156AEF71E08AED96E00E9405
:10352000751A42E068E386ED96E00E94401565E07A
:1035300072E08AED96E00E94751A44E068E386ED39
:1035400096E00E94401560E172E08AED96E00E94EC
:10355000751A46E068E386ED96E00E9440156BE13F
:1035600072E08AED96E00E94751A81E08093D80699
:1035700080916205909163050097A1F16AE070E087
:103580000E94CF2C9F938F937F936F9386E292E05C
:103590009F938F938E010F5F1F4F1F930F930E9476
:1035A000722D409162055091630570E060E02AE061
:1035B0008AEB95E00E94FD1963ED71E08AEB95E0DE
:1035C0000E94EE1940E06CE586ED96E00E94401501
:1035D000B8018AED96E00E94751A0FB6F894DEBF26
:1035E0000FBECDBF8091640590916505009741F1B4
:1035F0006AE070E00E94CF2C9F938F937F936F932C
:1036000086E292E09F938F938E010F5F1F4F1F936F
:103610000F930E94722DB8018AEB95E00E94491A1F
:1036200042E06CE586ED96E00E944015B8018AED17
:1036300096E00E94751A0FB6F894DEBF0FBECDBF9C
:103640008091660590916705009741F16AE070E00E
:103650000E94CF2C9F938F937F936F9386E292E08B
:103660009F938F938E010F5F1F4F1F930F930E94A5
:10367000722DB8018AEB95E00E94491A44E06CE58E
:1036800086ED96E00E944015B8018AED96E00E9412
:10369000751A0FB6F894DEBF0FBECDBF80916805D6
:1036A00090916905009741F16AE070E00E94CF2C8B
:1036B0009F938F937F936F9386E292E09F938F9374
:1036C0008E010F5F1F4F1F930F930E94722DB80141
:1036D0008AEB95E00E94491A46E06CE586ED96E09B
:1036E0000E944015B8018AED96E00E94751A0FB647
:1036F000F894DEBF0FBECDBF28960FB6F894DEBF9C
:103700000FBECDBFDF91CF911F910F91089580E43F
:103710000E9456150E94771A1092D80647E068E179
:1037200086ED96E00E9440156EE272E08AED96E02A
:103730000C94751ACF92DF92EF92FF92CF93DF93A2
:10374000EC016A017B0163E372E08AEB95E00E9481
:10375000751A20E1B701A6018AEB95E00E94FD19D8
:103760006DE08AEB95E00E94E50762E370E080E09F
:1037700090E00E9405070E945208C701B6010E940E
:103780002606CE010E94D90881E0DF91CF91FF90FB
:10379000EF90DF90CF9008956115710521F08AEBCD
:1037A00095E00C94EE190895EF92FF920F931F93FA
:1037B000CF93DF93CDB7DEB7A0970FB6F894DEBFF7
:1037C0000FBECDBF7C01DC01ED91FC910688F7892D
:1037D000E02D00E117E220E2AE014F5F5F4F6AE3A8
:1037E00072E00995811110C060E070E0CB01A096F5
:1037F0000FB6F894DEBF0FBECDBFDF91CF911F9102
:103800000F91FF90EF900895D701ED91FC9106ACD8
:10381000F7ADE02DBE016F5F7F4FC701099500979F
:1038200019F30E940127E3CFDF92EF92FF920F93EB
:103830001F93CF93DF93CDB7DEB760970FB6F894A1
:10384000DEBF0FBECDBF7C01D62EDC01ED91FC9119
:103850000688F789E02D00E117E220E1AE014F5F15
:103860005F4F60E472E009958823F9F06FE370E040
:10387000CE0101960E944D2D892BB9F4DD20B9F0BF
:1038800081E0F70186A30190F081E02D0688F78999
:10389000E02D20E1AE014F5F5F4F68E472E0C701A9
:1038A0000995DD24D39481111AC0D12C18C0D701F9
:1038B0009696DC909697DD2009F196961C92969745
:1038C000ED91FC910688F789E02D00E117E220E1F7
:1038D000AE014F5F5F4F6FE472E0C70109958D2D18
:1038E00060960FB6F894DEBF0FBECDBFDF91CF91CB
:1038F0001F910F91FF90EF90DF900895DD24D394F6
:10390000EECFCF92DF92FF920F931F93CF93DF936F
:10391000CDB7DEB7A0970FB6F894DEBF0FBECDBF10
:103920006C0183E0F82ED601ED91FC910688F789B1
:10393000E02D08EC10E020E2AE014F5F5F4F6AEB34
:1039400071E0C60109958823F9F060E270E0CE01CC
:1039500001960E944D2DFC01892BB1F0928190536C
:1039600084818053BAE09B9F800D1124A0960FB6EE
:10397000F894DEBF0FBECDBFDF91CF911F910F91A5
:10398000FF90DF90CF900895FA94F110CCCF80E0B3
:10399000EDCFCB01FC014081242F042E000C330B12
:1039A000205331092A30310588F04D3279F06DE02D
:1039B00070E00E944D2DFC01009731F001962181AD
:1039C0002A3041F70196E6CF90E080E008958F928B
:1039D0009F92AF92BF92CF92DF92EF92FF920F939E
:1039E0001F93CF93DF93CDB7DEB7C054D1090FB685
:1039F000F894DEBF0FBECDBF7C014B015A016901B7
:103A0000DC01ED91FC910688F789E02D00E117E2D9
:103A100020E4AE014F5F5F4F66E572E009958111CA
:103A200015C080E0C05CDF4F0FB6F894DEBF0FBE5C
:103A3000CDBFDF91CF911F910F91FF90EF90DF905D
:103A4000CF90BF90AF909F908F900895D701ED9148
:103A5000FC9106ACF7ADE02DBE016F5F7F4FC70153
:103A600009950097F1F28C010F5F1F4F0E9401270B
:103A7000F40160837183828393836CE270E0C801F8
:103A80000E944D2D009769F28C010F5F1F4FC801F6
:103A90000E940527BC01990F880B990B0E945E2B91
:103AA000D5016D937D938D939C9313976CE270E099
:103AB000C8010E944D2D009709F4B3CF01960E94D2
:103AC0000127F601608371838283938381E0AACF0B
:103AD0006F927F928F929F92AF92BF92CF92DF921E
:103AE000EF92FF920F931F93CF93DF93CDB7DEB783
:103AF000C054D1090FB6F894DEBF0FBECDBF7C0114
:103B00004B015A0169013801672B09F45DC0DC01E2
:103B1000ED91FC910688F789E02D00E117E220E4A1
:103B2000AE014F5F5F4F6DE572E00995811117C0DF
:103B300080E0C05CDF4F0FB6F894DEBF0FBECDBF94
:103B4000DF91CF911F910F91FF90EF90DF90CF9079
:103B5000BF90AF909F908F907F906F900895D70106
:103B6000ED91FC9106ACF7ADE02DBE016F5F7F4F8C
:103B7000C70109950097E1F28C010F5F1F4F0E946A
:103B80000527F401918380836CE270E0C8010E94F4
:103B90004D2D009769F28C010F5F1F4FC8010E94E5
:103BA0000527D40113969C938E9312976CE270E0D4
:103BB000C8010E944D2D009709F4BACF01960E94CA
:103BC0000527F40195838483A114B10409F44AC044
:103BD000D701ED91FC910688F789E02D00E117E20D
:103BE00020E4AE014F5F5F4F64E672E0C7010995C4
:103BF000882309F49DCFD701ED91FC9106ACF7AD78
:103C0000E02DBE016F5F7F4FC7010995009709F452
:103C10008FCF8C010F5F1F4F0E940527F501918305
:103C200080836CE270E0C8010E944D2D009709F47A
:103C30007FCF8C010F5F1F4FC8010E940527D50160
:103C400013969C938E9312976CE270E0C8010E94C9
:103C50004D2D009709F46CCF01960E940527F501C0
:103C600095838483C114D10409F44AC0D701ED912E
:103C7000FC910688F789E02D00E117E220E4AE010F
:103C80004F5F5F4F6CE672E0C7010995882309F426
:103C90004FCFD701ED91FC9106ACF7ADE02DBE0101
:103CA0006F5F7F4FC7010995009709F441CF8C01E1
:103CB0000F5F1F4F0E940527F601918380836CE2FE
:103CC00070E0C8010E944D2D009709F431CF8C019E
:103CD0000F5F1F4FC8010E940527D60113969C93C2
:103CE0008E9312976CE270E0C8010E944D2D0097F0
:103CF00009F41ECF01960E940527F601958384835F
:103D00006114710461F1D701ED91FC910688F78986
:103D1000E02D00E117E220E4AE014F5F5F4F60E469
:103D200072E0C7010995882309F402CFD701ED910C
:103D3000FC9106ACF7ADE02DBE016F5F7F4FC70170
:103D40000995009709F4F4CE0E94052784589F4CEA
:103D500062E270E00E94E32CF3017183608381E0F2
:103D6000E8CECF92DF92EF92FF921F93CF93DF9333
:103D7000CDB7DEB728970FB6F894DEBF0FBECDBF24
:103D80006B0188E0EEE0F1E0DE01119601900D920A
:103D90008A95E1F7CE0101967C0110E0F70161916F
:103DA00071917F01C6010E94582D1F5F892B19F464
:103DB0001430A1F710E0812F28960FB6F894DEBFDB
:103DC0000FBECDBFDF91CF911F91FF90EF90DF909D
:103DD000CF9008958F929F92AF92BF92CF92DF9231
:103DE000EF92FF920F931F93CF93DF937C016B01B0
:103DF000942E852EA22EB12CD701ED91FC9106A414
:103E0000F7A5E02D28EE33E0A501692D782DC70137
:103E100009951816190684F5092D182D60E972E028
:103E2000C8010E94582DEC01009731F38C010D5F01
:103E30001F4FC8010E94FF0BF6019081911101C034
:103E40008083D6019C919813E9CFF70113828E01EC
:103E50000B5F1F4F8D81803209F7CE010696DF91EF
:103E6000CF911F910F91FF90EF90DF90CF90BF9077
:103E7000AF909F908F90089590E080E0F0CF2F92C8
:103E80003F924F925F926F927F928F929F92AF92EA
:103E9000BF92CF92DF92EF92FF920F931F93CF9337
:103EA000DF93CDB7DEB7C954D1090FB6F894DEBFA2
:103EB0000FBECDBF8C015B0186E0E6E1F1E0DE01E3
:103EC000AF5BBF4F01900D928A95E1F7D8019596AF
:103ED0001C921E9294976E01B1E4CB0ED11C460148
:103EE000E6E08E0E911C9E012F5F3F4F7901D601B7
:103EF0006D917D916D01D801ED91FC9100A8F1A922
:103F0000E02DC8010995D801ED91FC9106A4F7A513
:103F1000E02D20E137E240E450E0B701C801099507
:103F2000892BE1F4912C892DC75BDF4F0FB6F894F4
:103F3000DEBF0FBECDBFDF91CF911F910F91FF90DC
:103F4000EF90DF90CF90BF90AF909F908F907F9039
:103F50006F905F904F903F902F900895C814D904B0
:103F600031F6A114B10489F4D801ED91FC910684D5
:103F7000F785E02DAE01495B5F4F6DE0C801099503
:103F80008823A1F19924939440C0BF92AF9283E912
:103F90009BE09F938F93FF92EF920E944527D80159
:103FA000ED91FC9100A8F1A9E02DB701C801099598
:103FB000D801ED91FC9106A4F7A5E02D20E137E2B0
:103FC00040E450E0B701C80109950F900F900F90A1
:103FD0000F900F900F90892B39F664E972E0C701BA
:103FE0000E94582D892B09F0BFCF9CCFD801ED91AD
:103FF000FC910684F785E02DAE01495B5F4F6DE0D3
:10400000C8010995982E8111BDCF40E250E06FEFB5
:1040100070E0C80104960E94462D2801712C612C85
:104020002A966FAE2A977F926F92F80182811F9233
:104030008F9329E83BE03F932F93FF92EF920E94EA
:104040004527D801ED91FC9100A8F1A9E02DB70119
:10405000C8010995D801ED91FC9106A4F7A5E02DC2
:1040600020E137E240E450E0B701C80109950FB6FE
:10407000F894DEBF0FBECDBF18161906B4F5570170
:1040800002C09924939460E972E0C5010E94582D02
:104090006C01009751F15C01F3E0AF0EB11CC5015A
:1040A0000E94FF0B2A962FAD2A978213ECCF560160
:1040B00035E0A30EB11C4501120184E0280E311C2D
:1040C00091E1C90ED11CD4018C918032D1F6C4018A
:1040D00001960E94FF0BF10181931F01F3E08F0E07
:1040E000911C8C149D0479F7CCCF20E2620E711CD8
:1040F00034E0430E511C80E86816710409F090CF3B
:10410000992009F40FCF82E090E0D80195969C9316
:104110008E93949713961C9206CF85ED96E00E949D
:104120005D1A70E060E08EEA96E00E943F1F8823EF
:10413000A1F38091D50682608093D50685ED96E047
:104140000E945D1A0C94871B4F925F926F927F9230
:104150008F929F92AF92BF92CF92DF92EF92FF9297
:104160000F931F93CF93DF935C017B01442E85E077
:10417000582E3B0184E0680E711CD501ED91FC9135
:104180000688F789E02D00E117E2242DA70163EAF4
:1041900072E0C501099581110BC064E670E080E012
:1041A00090E00E9405075A945110E7CF80E040C08C
:1041B000C7010E94460C8C016DE77BE0C3010E94A1
:1041C0002327009751F30B9647010196EC010196C6
:1041D00028812032D9F36401CE010E94FF0BBFEF8A
:1041E0008B1A9B0AF6018083CE01EC01FC01219120
:1041F000222359F0203269F5EC0128810196203202
:10420000D9F3222311F02D3031F76AE370E0CE01AB
:104210000E944D2D0097C9F6D60111961C928E185A
:104220009F08035011098016910609F0B6CF81E06E
:10423000DF91CF911F910F91FF90EF90DF90CF9082
:10424000BF90AF909F908F907F906F905F904F90B6
:104250000895CF01CACF9F92AF92BF92CF92DF92C3
:10426000EF92FF920F931F93CF93DF93CDB7DEB7FB
:10427000C058D1090FB6F894DEBF0FBECDBF5C01A8
:10428000F62E972EE42E10E000E0CE0101966C0190
:10429000980181E79BE0011102C089E79BE03F9311
:1042A0002F939F938F93DF92CF920E944527D50142
:1042B000ED91FC9100A8F1A9E02DB601C501099589
:1042C000D501ED91FC9106A4F7A5E02D28EE33E091
:1042D00040E850E0B601C50109950F900F900F908E
:1042E0000F900F900F90181619069CF569E67BE069
:1042F000C6010E942327892B61F569EA72E0C60195
:104300000E94582D009759F1CF2CD92CF12CFE1476
:1043100039F1FC012081222319F18C010A5F1F4F22
:1043200086818D3051F46AE370E0C8010E944D2D02
:104330000097B1F08C010E5F1F4FC8010E94460C20
:10434000009771F0F394D6018D939D936D01C80190
:10435000DECF0F5F1F4F0630110509F099CFF12C0A
:104360008F2DC058DF4F0FB6F894DEBF0FBECDBF04
:10437000DF91CF911F910F91FF90EF90DF90CF9041
:10438000BF90AF909F90089585ED8093BC00809181
:10439000920590919305A0919405B091950507968B
:1043A000A11DB11D23E0B695A795979587952A95F0
:1043B000D1F72091BC0024FD03C010929005089510
:1043C00040919205509193056091940570919505E7
:1043D000452B462B472B69F30097A105B10541F00A
:1043E0002AE22A95F1F700C00197A109B109E1CFAE
:1043F000809191050C949C131F920F920FB60F920F
:1044000011242F933F938F939F93AF93BF938091EA
:104410005A0590915B05A0915C05B0915D053091C6
:10442000590523E0230F2D3758F50196A11DB11D25
:104430002093590580935A0590935B05A0935C05E2
:10444000B0935D0580915E0590915F05A091600538
:10445000B09161050196A11DB11D80935E059093F9
:104460005F05A0936005B0936105BF91AF919F91E7
:104470008F913F912F910F900FBE0F901F90189525
:1044800026E8230F0296A11DB11DD2CF1F920F92D5
:104490000FB60F9211242F933F934F935F936F9317
:1044A0007F938F939F93AF93BF93EF93FF938AEB89
:1044B00095E00E94C307FF91EF91BF91AF919F914B
:1044C0008F917F916F915F914F913F912F910F90BD
:1044D0000FBE0F901F9018951F920F920FB60F925C
:1044E00011242F938F939F93EF93FF93E091CA052D
:1044F000F091CB058081E091D005F091D10582FD4E
:104500001BC090818091D3058F5F8F732091D4055C
:10451000821741F0E091D305F0E0E654FA4F958F11
:104520008093D305FF91EF919F918F912F910F90E1
:104530000FBE0F901F9018958081F4CF1F920F929D
:104540000FB60F9211242F933F934F935F936F9366
:104550007F938F939F93AF93BF93EF93FF9380913C
:10456000B900887F803609F44AC0F0F5883209F432
:10457000A7C018F5803109F49BC0B8F4882309F46A
:10458000F9C0883009F494C0FF91EF91BF91AF91C9
:104590009F918F917F916F915F914F913F912F915B
:1045A0000F900FBE0F901F901895883109F488C0A6
:1045B000803251F780938E0514C0803409F49DC079
:1045C00040F48033B9F38833F9F680938E0585EC97
:1045D000B0C0803509F485C0883509F496C08834A8
:1045E00099F60E94C421D0CF883909F48CC038F5DF
:1045F000883729F050F4883611F0803729F683E0A7
:104600008093900510923D0357C0883809F47BC011
:10461000803919F0803809F0B7CF80913D0380329E
:1046200008F071C0E0913D0381E08E0F80933D035F
:104630008091BB00F0E0E35EFC4F80833DC0803B97
:1046400039F0E0F4803A09F479C0883A09F09CCF57
:1046500084E08093900510921C0310921B03E0915C
:104660004605F0914705099580911B0381110FC004
:1046700081E080931B031092FB0209C0803C09F487
:10468000A6CF883C09F4A3CF883B09F07DCFE09109
:104690001C0381E08E0F80931C03F0E0E550FD4F7A
:1046A00080818093BB0090911C0380911B0329C0E3
:1046B00080916B058093BB0085EC8093BC0064CF38
:1046C00090918D0580918C05981758F5E0918D0596
:1046D00081E08E0F80938D05F0E0E459FA4F8081E0
:1046E000E9CFE0918D0581E08E0F80938D0580915B
:1046F000BB00F0E0E459FA4F808390918D058091E2
:104700008C059817C8F285E8D8CFE0918D0581E037
:104710008E0F80938D058091BB00F0E0E459FA4F35
:10472000808380918F0581115CCF81E080936A0541
:1047300084EA8093BC001092900526CF85EC80938C
:10474000BC001092900580913D03803230F4E091DE
:104750003D03F0E0E35EFC4F108260913D0370E0AA
:10476000E0914405F09145058DE193E009951092A3
:104770003D030ACF10928E0534CF6A3079F4FC01E4
:1047800041852281222341F022E0420F60E00E9415
:10479000401581E090E0089521E0F7CF6D3019F4E5
:1047A000FC011086F6CF0E949B15F3CF04970C9462
:1047B000BD23CF93DF93EAEBF5E01382128288EEFC
:1047C00093E0A0E0B0E084839583A683B78320E2E2
:1047D00031E03183208325EC30E03587248724ECD9
:1047E00030E03787268720EC30E0318B208B21ECBE
:1047F00030E0338B228B22EC30E0358B248B26EC9F
:1048000030E0378B268B118E128E138E148EE7E5D7
:10481000F6E020E520831182E9E5F6E015821682B4
:104820001186138642E050E060E070E044875587CF
:104830006687778713A215A614A622E331E033A773
:1048400022A717A6E2EAF6E01382128284839583F8
:10485000A683B7838EE391E091838083E6EDF6E053
:10486000128213821782168286E991E091838083F7
:1048700082EA91E095838483EEEAF6E081E0828328
:104880001382A2EBB6E080E2ED0119928A95E9F776
:1048900015A214A216A280E591E09183808317A24D
:1048A000DF91CF910895CF93DF9300D000D0CDB7A3
:1048B000DEB7789484B5826084BD84B5816084BDA0
:1048C00085B5826085BD85B5816085BD80916E00AE
:1048D000816080936E0010928100809181008260DF
:1048E000809381008091810081608093810080911C
:1048F00080008160809380008091B100846080930B
:10490000B1008091B00081608093B00080917A0006
:10491000846080937A0080917A00826080937A002C
:1049200080917A00816080937A0080917A0080681B
:1049300080937A001092C1001092490510924805A8
:10494000109297051092B9050E947E1383E497E0B8
:10495000909347058093460584E497E0909345053E
:10496000809344058EEA0E942F1582E00E942F1545
:1049700080E10E942F1580E40E942F1580EB0E9499
:104980002F1581E80E942F1580E80E942F1581EADB
:104990000E942F1586EA0E942F1588EA0E942F1583
:1049A0008FE30E942F158DEA0E942F158BE80E943D
:1049B0002F1580E30E942F1588EC0E942F1583EDA0
:1049C0000E942F1580E00E942F1585ED0E942F1563
:1049D00080E80E942F1589ED0E942F158FE10E941B
:1049E0002F158AED0E942F1582E10E942F158BED65
:1049F0000E942F1580E40E942F158FEA0E942F1528
:104A000080E40E94561581E08093D8066CEA72E03B
:104A10008AED96E00E94491A8EEA96E00E947B0990
:104A20000E948D203324339488E0282E0E9437077B
:104A30006B017C018090550590905605A09057051C
:104A4000B0905805AE014F5F5F4F6DE08EEA96E083
:104A50000E94A019882309F487C00E9437072B0100
:104A60003C0183E08093D806E981FA81FC83EB83E3
:104A7000009104011091050180915105909152051A
:104A8000A0915305B0915405A3019201281B390B45
:104A90004A0B5B0BDF01A00FB11F0E943E2D20E2ED
:104AA0003CE140E050E00E94F72C80914D05909150
:104AB0004E05A0914F05B0915005820F931FA41F82
:104AC000B51F80934D0590934E05A0934F05B0936D
:104AD00050058B819C8180179107A9F044E060E02C
:104AE00086ED96E00E94401589819A8168EE73E018
:104AF0000E94CF2C63E00E94511989819A81909382
:104B00000501809304014092510550925205609234
:104B100053057092540580914C05813009F057C0BF
:104B200089819A8118161906FCF482E080934C055D
:104B3000409255055092560560925705709258055F
:104B4000109205011092040110924D0510924E052D
:104B500010924F0510925005E2E6F5E0822D119279
:104B60008A95E9F70E94871B8091B106823008F48C
:104B70003BC180E40E9456153092D8066CEC72E07E
:104B80008AED96E00E94751A0E94370760935505DA
:104B90007093560580935705909358058091D506DC
:104BA0008D7F80628093D50610E000E070E060E0C9
:104BB0008EEA96E00E943F1F811106C10A3011055E
:104BC00019F480E40E9456150F5F1F4FEFCF82301B
:104BD00009F0D6C0C818D908EA08FB08C701B60111
:104BE00028EE33E040E050E00E94F72C29014B0111
:104BF0005C012436310528F540E060E086ED96E062
:104C00000E94401562E0C2010E9451193092D806FC
:104C100041E060E286ED96E00E9440156EE286ED8E
:104C200096E00E949B15C501B40124E630E040E007
:104C300050E00E94F72C60E3620F86ED96E00E9440
:104C4000BD2389819A812091660530916705232BC8
:104C500009F05EC0883C91050CF45AC0C701B6014A
:104C600024E630E040E050E00E94F72C30936705E6
:104C70002093660510924C0588E10E9456150E940B
:104C8000771A3092D80640E060E086ED96E00E9408
:104C900040156BEB72E08AED96E00E94751A8090E9
:104CA0004D0590904E05A0904F05B0905005811491
:104CB0009104A104B10409F457CF1092D80646E03C
:104CC0006EE386ED96E00E94401563E0E0E98E1603
:104CD000E1E09E06A104B10408F44EC080E991E031
:104CE0000E9451198091680590916905892B09F0FE
:104CF0003BCFC701B60124E630E040E050E00E941F
:104D0000F72C30936905209368050E94771A2CCF01
:104D10002091640530916505232B91F4843691052B
:104D20007CF0C701B60124E630E040E050E00E948C
:104D3000F72C30936505209364050E94771AAFCF56
:104D40002091620530916305232B81F48C3391050A
:104D50006CF0C701B60124E630E040E050E00E946C
:104D6000F72C3093630520936205E7CF892B09F078
:104D700096CF10924C0593CFC4010E945119F4CEE6
:104D800089819A81892B09F0EFCE30924C050E94DF
:104D9000871B3092D80640E060E086ED96E00E94E6
:104DA000401561EC72E08AED96E00E94491A66ECCB
:104DB00072E08AED96E00E94491A64EF71E080E0AB
:104DC00090E00E940507D0CE8091D5068F7D80931C
:104DD000D50680914A0590914B05019690934B051D
:104DE00080934A050E948D2080E090E0892B09F491
:104DF0001DCE0E94AF07882309F414CE0E94000044
:104E000011CE662777270C944229FC018827992721
:104E1000E89421912032E9F3293010F02E30C8F3C4
:104E20002B3241F02D3239F4689404C00E943D27A2
:104E3000820F911D219120532A30C0F31EF49095CA
:104E400081959F4F0895FB0155915523A9F0BF010E
:104E5000DC014D9145174111E1F759F4CD01059061
:104E6000002049F04D9140154111C9F3FB0141115A
:104E7000EFCF81E090E0019708957AE0979F902D21
:104E8000879F802D910D11240895AEE0B0E0EBE4F2
:104E9000F7E20C94972C0D891E898EE08C831A837F
:104EA00009838FEF9FE79E838D83AE01475E5F4F3F
:104EB0006F89788DCE0101960E9468272F813885F1
:104EC000020F131FF80110822E96E4E00C94B32C0D
:104ED000ABE0B0E0EEE6F7E20C94892C7C013B01FC
:104EE0008A01FC0117821682838181FFC8C1CE012D
:104EF00001965C01F7019381F30193FD859193FF86
:104F000081913F01882309F453C1853239F493FD1F
:104F1000859193FF81913F01853229F4B70190E09B
:104F20000E94C92AE7CF912C212C312CFFE1F315E7
:104F300038F08B3211F190F4803209F1833229F18B
:104F400037FC3CC020ED280F2A3050F536FE20C03B
:104F50008AE0989E200D1124922E06C08D3291F089
:104F6000803371F7689430F8F30193FD859193FFD6
:104F700081913F018111DACF21C0689431F86894A2
:104F800032F8F2CF689433F8EFCF689434F8ECCF6E
:104F9000EAE02E9E200D1124222E689435F8E4CFED
:104FA0008E3229F436FC04C1689436F8DDCF8C3695
:104FB00019F4689437F8D8CF8836B1F2982F9F7DCE
:104FC00095549330E0F08336A1F18337C1F18335F6
:104FD00009F063C02801F2E04F0E511CF801C080B7
:104FE000D180692D70E036FC02C06FEF7FEFC60103
:104FF0000E94B32A4C01689437F882010AC00C5F02
:105000001F4FFFE3F98388248394912C6501E89472
:1050100037F833FE2DC0522C8114910471F55520C0
:1050200009F468CFB70180E290E00E94C92A5A943F
:10503000F6CFF801808189830E5F1F4FE4CF2801EE
:10504000F2E04F0E511CF801C080D180692D70E054
:1050500036FC02C06FEF7FEFC6010E94BE2A4C01F2
:105060008201D5CFB70180E290E00E94C92A2A943C
:105070002814190409F0B0F7CECFF60137FC85915A
:1050800037FE81916F01B70190E00E94C92A51104B
:105090005A94F1E08F1A9108BFCF843619F08936FF
:1050A00009F077C0F80137FE6BC0608171818281A1
:1050B00093810C5F1F4FF32DFF763F2E97FF09C0A2
:1050C00090958095709561957F4F8F4F9F4F689415
:1050D00037F82AE030E0A5010E94F92AC82ECA1844
:1050E0008C2C432C36FE0CC0E89440F8C91440F4D4
:1050F00034FE05C032FC03C0F32DFE7E4F2E892CFA
:1051000044FE95C0FE01EC0DF11D8081803309F055
:1051100087C0242D297E422E842D8870582E43FC72
:1051200095C040FE8FC09C2C821418F42C0C922C3D
:10513000981844FE91C0B70180E390E00E94C92A0C
:1051400042FE09C088E790E041FE02C088E590E099
:10515000B7010E94C92AC91408F48AC0CA94D12C84
:105160009FEFC91AD90ACA0CDB1CF60182916F01A4
:10517000B70190E00E94C92AAC14BD04B1F74FCF2B
:1051800060817181072E000C880B990B0E5F1F4FF9
:1051900092CFD32CE894D4F82AE030E0853739F167
:1051A000232D297FD22E8F3601F148F48835A9F0BE
:1051B000F701868197812B96E2E10C94A52C80372C
:1051C00049F08837A9F7D4FE02C06894D2F820E1EC
:1051D00030E00DC06894D4F8F6CF34FE03C0822FBF
:1051E0008660D82E20E132E002C028E030E0F801ED
:1051F000D7FE0FC060817181828193810C5F1F4F48
:10520000A5010E94F92AC82ECA183D2CE89437F847
:1052100067CF6081718190E080E00E5F1F4FF0CF1B
:1052200042FC02C0839478CF8394839475CF842DFD
:10523000867809F471CFF6CFB70180E290E00E9442
:10524000C92A83948214C0F3512C73CF522C58185E
:10525000821408F46ECFF8CF842D867809F47BCFC2
:105260008BE241FE80E247FC8DE2B70190E071CF16
:10527000B70180E390E00E94C92A9A946CCF8FEF27
:105280009FEF99CFB0E0A0E0E8E4F9E20C948F2C16
:105290005C017B016115710519F0DB018D939C9315
:1052A00085010F5F1F4FF501D0818D2F90E00E9487
:1052B000922A6C01892BB9F5DD32B9F50F5F1F4FCA
:1052C000D5011196DC91C1E05801F1E0AF1AB108A7
:1052D00043E050E060E770E0C5010E949B2A892B03
:1052E00069F5680182E0C80ED11C45E050E06BE62C
:1052F00070E0C6010E949B2A892B21F4680197E087
:10530000C90ED11CE114F10419F0D701CD92DC9241
:1053100060E070E080E89FEFC111FFC060E070E0E6
:1053200080E89FE7FAC05801BBCFDB3229F4850142
:105330000E5F1F4FF501D181C0E0C6CF43E050E0C2
:1053400068E670E0C5010E949B2A892BE9F0F8010C
:1053500010E000E020E030E0A9015F01B0ED8B2E0D
:105360008D0E89E08815C8F19C2E689491F88C2FD9
:105370008870C2FF16C0811102C00F5F1F4F3196A7
:10538000D501DC91C92DE9CFE114F10429F00E5FBC
:105390001F4FF7011183008360E070E080EC9FE70E
:1053A000BCC0882311F001501109A5E0B0E00E94B3
:1053B0007E2C9B01AC01220F331F441F551F280D6B
:1053C000311D411D511D283999E93907490799E1D6
:1053D0005907A8F2C6609C2ED2CFAEEF8A1206C043
:1053E000C3FD3CC09C2E689493F8C9CFDF7DD534B3
:1053F000A9F580818D3239F4C061DF011296818177
:1054000062E070E006C0DF018B32C1F3119661E00B
:1054100070E080535D01A61AB70A8A30F8F4E0E81C
:10542000CE16ECE0DE065CF4B601660F771F660F61
:10543000771FC60ED71ECC0CDD1CC80ED11C5D011B
:10544000FFEFAF1ABF0A8C9180538A30A8F1C4FFD6
:1054500003C0D194C194D1080C0D1D1DC1FF09C01A
:10546000E114F10431F081E0A81AB108D701AD923E
:10547000BC92CA01B9010E945C2BC370C33009F40D
:1054800090584B015C0120E030E0A9010E94572BAD
:10549000882309F440C0CFE9D0E017FF05C011957B
:1054A00001951109C7E8D0E06E01B8E1CB1AD10827
:1054B00080E2E82EF12C0FC0D501B1CFFE0125917D
:1054C0003591459154910E191F09C501B4010E94EF
:1054D000BD2B4B015C01D501C4010E151F0574F7EE
:1054E0002497F594E794CC16DD06A9F78A2F880F48
:1054F0008B2F881F8F3F49F020E030E0A901C501C4
:10550000B4010E94572B811106C082E290E0909373
:10551000E1068093E006C501B401CDB7DEB7ECE04B
:105520000C94AB2C91110C942A2C803219F08950D8
:105530008550C8F70895FB01DC014150504088F0C8
:105540008D9181341CF08B350CF4805E6591613453
:105550001CF06B350CF4605E861B611171F3990BC6
:105560000895881BFCCFFC0105906150704001102C
:10557000D8F7809590958E0F9F1F0895FC0161507C
:10558000704001900110D8F7809590958E0F9F1F65
:1055900008950F931F93CF93DF93182F092FEB01DB
:1055A0008B8181FD09C01FEF0FEF812F902FDF91BD
:1055B000CF911F910F91089582FF14C02E813F81DA
:1055C0008C819D81281739073CF4E881F981CF014E
:1055D00001969983888310838E819F8101969F8392
:1055E0008E83E3CFE885F985812F0995892BA1F377
:1055F000DACFFA01AA27283051F1203181F1E8945D
:105600006F936E7F6E5F7F4F8F4F9F4FAF4FB1E0B5
:105610003ED0B4E03CD0670F781F891F9A1FA11DB0
:10562000680F791F8A1F911DA11D6A0F711D811DB1
:10563000911DA11D20D009F468943F912AE0269F76
:1056400011243019305D3193DEF6CF010895462FD5
:105650004770405D4193B3E00FD0C9F7F6CF462FB6
:105660004F70405D4A3318F0495D31FD405241931F
:1056700002D0A9F7EACFB4E0A695979587957795DC
:105680006795BA95C9F700976105710508959B0163
:10569000AC010A2E06945795479537952795BA95EC
:1056A000C9F7620F731F841F951FA01D08950E94E4
:1056B000992B08F481E00895E89409C097FB3EF423
:1056C00090958095709561957F4F8F4F9F4F99234F
:1056D000A9F0F92F96E9BB279395F69587957795CD
:1056E0006795B795F111F8CFFAF4BB0F11F460FF8D
:1056F0001BC06F5F7F4F8F4F9F4F16C0882311F0E5
:1057000096E911C0772321F09EE8872F762F05C0F8
:10571000662371F096E8862F70E060E02AF09A9593
:10572000660F771F881FDAF7880F9695879597F988
:105730000895990F0008550FAA0BE0E8FEEF161622
:105740001706E807F907C0F012161306E407F50775
:1057500098F0621B730B840B950B39F40A2661F0E9
:10576000232B242B252B21F408950A2609F4A1408C
:10577000A6958FEF811D811D08950E94D02B0C945A
:10578000442C0E94362C38F00E943D2C20F09523AA
:1057900011F00C942D2C0C94332C11240C94782C97
:1057A0000E94552C70F3959FC1F3950F50E0551F43
:1057B000629FF001729FBB27F00DB11D639FAA2766
:1057C000F00DB11DAA1F649F6627B00DA11D661FB5
:1057D000829F2227B00DA11D621F739FB00DA11DD6
:1057E000621F839FA00D611D221F749F3327A00D90
:1057F000611D231F849F600D211D822F762F6A2F2C
:1058000011249F5750409AF0F1F088234AF0EE0F90
:10581000FF1FBB1F661F771F881F91505040A9F7BD
:105820009E3F510580F00C942D2C0C94782C5F3FFA
:10583000E4F3983ED4F3869577956795B795F795F9
:10584000E7959F5FC1F7FE2B880F911D9695879571
:1058500097F9089599278827089597F99F6780E811
:1058600070E060E008959FEF80EC089500240A94B2
:105870001616170618060906089500240A9412162B
:105880001306140605060895092E0394000C11F45E
:10589000882352F0BB0F40F4BF2B11F460FF04C00B
:1058A0006F5F7F4F8F4F9F4F089557FD9058440F64
:1058B000551F59F05F3F71F04795880F97FB991F6F
:1058C00061F09F3F79F0879508951216130614062C
:1058D000551FF2CF4695F1DF08C0161617061806B9
:1058E000991FF1CF86957105610508940895E89494
:1058F000BB2766277727CB0197F908950E94C02C14
:10590000A59F900DB49F900DA49F800D911D112413
:1059100008952F923F924F925F926F927F928F9253
:105920009F92AF92BF92CF92DF92EF92FF920F932E
:105930001F93CF93DF93CDB7DEB7CA1BDB0B0FB638
:10594000F894DEBF0FBECDBF09942A8839884888F5
:105950005F846E847D848C849B84AA84B984C8848B
:10596000DF80EE80FD800C811B81AA81B981CE0F82
:10597000D11D0FB6F894DEBF0FBECDBFED01089567
:10598000A29FB001B39FC001A39F700D811D112480
:10599000911DB29F700D811D1124911D0895AA1BA8
:1059A000BB1B51E107C0AA1FBB1FA617B70710F00A
:1059B000A61BB70B881F991F5A95A9F7809590953C
:1059C000BC01CD01089597FB072E16F4009407D073
:1059D00077FD09D00E94CF2C07FC05D03EF49095AE
:1059E00081959F4F0895709561957F4F0895A1E22D
:1059F0001A2EAA1BBB1BFD010DC0AA1FBB1FEE1F49
:105A0000FF1FA217B307E407F50720F0A21BB30B93
:105A1000E40BF50B661F771F881F991F1A9469F70F
:105A200060957095809590959B01AC01BD01CF016B
:105A30000895052E97FB1EF400940E94302D57FD0B
:105A400007D00E94F72C07FC03D04EF40C94302DA5
:105A500050954095309521953F4F4F4F5F4F08959A
:105A600090958095709561957F4F8F4F9F4F0895CA
:105A7000EE0FFF1F0590F491E02D0994B7FF0C94F1
:105A80007E2C0E947E2C821B930B0895DC0101C0AA
:105A90006D9341505040E0F70895FC0181918617C5
:105AA00021F08823D9F7992708953197CF010895D8
:105AB000FB0151915523A9F0BF01DC014D91451720
:105AC0004111E1F759F4CD010190002049F04D91C9
:105AD00040154111C9F3FB014111EFCF81E090E086
